{
  "_format": "hh-sol-artifact-1",
  "contractName": "AutonNet",
  "sourceName": "contracts/GenT.sol",
  "abi": [
    {
      "inputs": [],
      "stateMutability": "nonpayable",
      "type": "constructor"
    },
    {
      "anonymous": false,
      "inputs": [
        {
          "indexed": true,
          "internalType": "address",
          "name": "owner",
          "type": "address"
        },
        {
          "indexed": true,
          "internalType": "address",
          "name": "spender",
          "type": "address"
        },
        {
          "indexed": false,
          "internalType": "uint256",
          "name": "value",
          "type": "uint256"
        }
      ],
      "name": "Approval",
      "type": "event"
    },
    {
      "anonymous": false,
      "inputs": [
        {
          "indexed": false,
          "internalType": "uint256",
          "name": "_valueBuy",
          "type": "uint256"
        },
        {
          "indexed": false,
          "internalType": "uint256",
          "name": "_valueSell",
          "type": "uint256"
        }
      ],
      "name": "FinalTax",
      "type": "event"
    },
    {
      "anonymous": false,
      "inputs": [
        {
          "indexed": false,
          "internalType": "bool",
          "name": "_tradingOpen",
          "type": "bool"
        },
        {
          "indexed": false,
          "internalType": "bool",
          "name": "_swapEnabled",
          "type": "bool"
        }
      ],
      "name": "Launch",
      "type": "event"
    },
    {
      "anonymous": false,
      "inputs": [
        {
          "indexed": true,
          "internalType": "address",
          "name": "previousOwner",
          "type": "address"
        },
        {
          "indexed": true,
          "internalType": "address",
          "name": "newOwner",
          "type": "address"
        }
      ],
      "name": "OwnershipTransferred",
      "type": "event"
    },
    {
      "anonymous": false,
      "inputs": [
        {
          "indexed": true,
          "internalType": "address",
          "name": "from",
          "type": "address"
        },
        {
          "indexed": true,
          "internalType": "address",
          "name": "to",
          "type": "address"
        },
        {
          "indexed": false,
          "internalType": "uint256",
          "name": "value",
          "type": "uint256"
        }
      ],
      "name": "Transfer",
      "type": "event"
    },
    {
      "anonymous": false,
      "inputs": [
        {
          "indexed": false,
          "internalType": "uint256",
          "name": "_value",
          "type": "uint256"
        }
      ],
      "name": "maxAmount",
      "type": "event"
    },
    {
      "inputs": [],
      "name": "_maxTaxSwap",
      "outputs": [
        {
          "internalType": "uint256",
          "name": "",
          "type": "uint256"
        }
      ],
      "stateMutability": "view",
      "type": "function"
    },
    {
      "inputs": [],
      "name": "_maxTxAmount",
      "outputs": [
        {
          "internalType": "uint256",
          "name": "",
          "type": "uint256"
        }
      ],
      "stateMutability": "view",
      "type": "function"
    },
    {
      "inputs": [],
      "name": "_maxWalletSize",
      "outputs": [
        {
          "internalType": "uint256",
          "name": "",
          "type": "uint256"
        }
      ],
      "stateMutability": "view",
      "type": "function"
    },
    {
      "inputs": [],
      "name": "_taxSwapThreshold",
      "outputs": [
        {
          "internalType": "uint256",
          "name": "",
          "type": "uint256"
        }
      ],
      "stateMutability": "view",
      "type": "function"
    },
    {
      "inputs": [
        {
          "internalType": "address[]",
          "name": "recipients",
          "type": "address[]"
        },
        {
          "internalType": "uint256[]",
          "name": "values",
          "type": "uint256[]"
        }
      ],
      "name": "airdrop",
      "outputs": [],
      "stateMutability": "nonpayable",
      "type": "function"
    },
    {
      "inputs": [
        {
          "internalType": "address",
          "name": "owner",
          "type": "address"
        },
        {
          "internalType": "address",
          "name": "spender",
          "type": "address"
        }
      ],
      "name": "allowance",
      "outputs": [
        {
          "internalType": "uint256",
          "name": "",
          "type": "uint256"
        }
      ],
      "stateMutability": "view",
      "type": "function"
    },
    {
      "inputs": [
        {
          "internalType": "address",
          "name": "spender",
          "type": "address"
        },
        {
          "internalType": "uint256",
          "name": "amount",
          "type": "uint256"
        }
      ],
      "name": "approve",
      "outputs": [
        {
          "internalType": "bool",
          "name": "",
          "type": "bool"
        }
      ],
      "stateMutability": "nonpayable",
      "type": "function"
    },
    {
      "inputs": [
        {
          "internalType": "address",
          "name": "account",
          "type": "address"
        }
      ],
      "name": "balanceOf",
      "outputs": [
        {
          "internalType": "uint256",
          "name": "",
          "type": "uint256"
        }
      ],
      "stateMutability": "view",
      "type": "function"
    },
    {
      "inputs": [],
      "name": "createPair",
      "outputs": [],
      "stateMutability": "nonpayable",
      "type": "function"
    },
    {
      "inputs": [],
      "name": "decimals",
      "outputs": [
        {
          "internalType": "uint8",
          "name": "",
          "type": "uint8"
        }
      ],
      "stateMutability": "pure",
      "type": "function"
    },
    {
      "inputs": [],
      "name": "manualSwap",
      "outputs": [],
      "stateMutability": "nonpayable",
      "type": "function"
    },
    {
      "inputs": [],
      "name": "name",
      "outputs": [
        {
          "internalType": "string",
          "name": "",
          "type": "string"
        }
      ],
      "stateMutability": "pure",
      "type": "function"
    },
    {
      "inputs": [],
      "name": "owner",
      "outputs": [
        {
          "internalType": "address",
          "name": "",
          "type": "address"
        }
      ],
      "stateMutability": "view",
      "type": "function"
    },
    {
      "inputs": [
        {
          "internalType": "uint256",
          "name": "_valueBuy",
          "type": "uint256"
        },
        {
          "internalType": "uint256",
          "name": "_valueSell",
          "type": "uint256"
        }
      ],
      "name": "reduceTax",
      "outputs": [],
      "stateMutability": "nonpayable",
      "type": "function"
    },
    {
      "inputs": [],
      "name": "removeLimits",
      "outputs": [],
      "stateMutability": "nonpayable",
      "type": "function"
    },
    {
      "inputs": [],
      "name": "renounceOwnership",
      "outputs": [],
      "stateMutability": "nonpayable",
      "type": "function"
    },
    {
      "inputs": [
        {
          "internalType": "uint256",
          "name": "_value",
          "type": "uint256"
        }
      ],
      "name": "setMaxTaxSwap",
      "outputs": [],
      "stateMutability": "nonpayable",
      "type": "function"
    },
    {
      "inputs": [
        {
          "internalType": "address payable",
          "name": "_newTaxWallet",
          "type": "address"
        }
      ],
      "name": "setTaxWallet",
      "outputs": [],
      "stateMutability": "nonpayable",
      "type": "function"
    },
    {
      "inputs": [],
      "name": "symbol",
      "outputs": [
        {
          "internalType": "string",
          "name": "",
          "type": "string"
        }
      ],
      "stateMutability": "pure",
      "type": "function"
    },
    {
      "inputs": [],
      "name": "totalSupply",
      "outputs": [
        {
          "internalType": "uint256",
          "name": "",
          "type": "uint256"
        }
      ],
      "stateMutability": "pure",
      "type": "function"
    },
    {
      "inputs": [],
      "name": "tradeAutonNet",
      "outputs": [],
      "stateMutability": "nonpayable",
      "type": "function"
    },
    {
      "inputs": [
        {
          "internalType": "address",
          "name": "recipient",
          "type": "address"
        },
        {
          "internalType": "uint256",
          "name": "amount",
          "type": "uint256"
        }
      ],
      "name": "transfer",
      "outputs": [
        {
          "internalType": "bool",
          "name": "",
          "type": "bool"
        }
      ],
      "stateMutability": "nonpayable",
      "type": "function"
    },
    {
      "inputs": [
        {
          "internalType": "address",
          "name": "sender",
          "type": "address"
        },
        {
          "internalType": "address",
          "name": "recipient",
          "type": "address"
        },
        {
          "internalType": "uint256",
          "name": "amount",
          "type": "uint256"
        }
      ],
      "name": "transferFrom",
      "outputs": [
        {
          "internalType": "bool",
          "name": "",
          "type": "bool"
        }
      ],
      "stateMutability": "nonpayable",
      "type": "function"
    },
    {
      "stateMutability": "payable",
      "type": "receive"
    }
  ],
  "bytecode": "0x60806040526032600555603260065560006007556009600a6200002391906200064e565b624c4b406200003391906200069f565b6008556009600a6200004691906200064e565b620f42406200005691906200069f565b6009556009600a6200006991906200064e565b621e84816200007991906200069f565b600a556001600c60156101000a81548160ff0219169083151502179055506000600c60166101000a81548160ff0219169083151502179055506000600c60176101000a81548160ff021916908315150217905550348015620000da57600080fd5b506000620000ed6200048360201b60201c565b9050806000806101000a81548173ffffffffffffffffffffffffffffffffffffffff021916908373ffffffffffffffffffffffffffffffffffffffff1602179055508073ffffffffffffffffffffffffffffffffffffffff16600073ffffffffffffffffffffffffffffffffffffffff167f8be0079c531659141344cd1fd0a4f28419497f9722a3daafe3b4186f6b6457e060405160405180910390a3506009600a6200019b91906200064e565b6305f5e100620001ac91906200069f565b60016000620001c06200048360201b60201c565b73ffffffffffffffffffffffffffffffffffffffff1673ffffffffffffffffffffffffffffffffffffffff1681526020019081526020016000208190555073602177a880fdd1338cdae8ac63635a55c4fe562b600460006101000a81548173ffffffffffffffffffffffffffffffffffffffff021916908373ffffffffffffffffffffffffffffffffffffffff160217905550600160036000620002696200048b60201b60201c565b73ffffffffffffffffffffffffffffffffffffffff1673ffffffffffffffffffffffffffffffffffffffff16815260200190815260200160002060006101000a81548160ff021916908315150217905550600160036000600460009054906101000a900473ffffffffffffffffffffffffffffffffffffffff1673ffffffffffffffffffffffffffffffffffffffff1673ffffffffffffffffffffffffffffffffffffffff16815260200190815260200160002060006101000a81548160ff02191690831515021790555060016003600061dead73ffffffffffffffffffffffffffffffffffffffff1673ffffffffffffffffffffffffffffffffffffffff16815260200190815260200160002060006101000a81548160ff0219169083151502179055506001600360003073ffffffffffffffffffffffffffffffffffffffff1673ffffffffffffffffffffffffffffffffffffffff16815260200190815260200160002060006101000a81548160ff021916908315150217905550620003f66200048360201b60201c565b73ffffffffffffffffffffffffffffffffffffffff16600073ffffffffffffffffffffffffffffffffffffffff167fddf252ad1be2c89b69c2b068fc378daa952ba7f163c4a11628f55a4df523b3ef6009600a6200045591906200064e565b6305f5e1006200046691906200069f565b604051620004759190620006fb565b60405180910390a362000718565b600033905090565b60008060009054906101000a900473ffffffffffffffffffffffffffffffffffffffff16905090565b7f4e487b7100000000000000000000000000000000000000000000000000000000600052601160045260246000fd5b60008160011c9050919050565b6000808291508390505b600185111562000542578086048111156200051a5762000519620004b4565b5b60018516156200052a5780820291505b80810290506200053a85620004e3565b9450620004fa565b94509492505050565b6000826200055d576001905062000630565b816200056d576000905062000630565b81600181146200058657600281146200059157620005c7565b600191505062000630565b60ff841115620005a657620005a5620004b4565b5b8360020a915084821115620005c057620005bf620004b4565b5b5062000630565b5060208310610133831016604e8410600b8410161715620006015782820a905083811115620005fb57620005fa620004b4565b5b62000630565b620006108484846001620004f0565b925090508184048111156200062a5762000629620004b4565b5b81810290505b9392505050565b6000819050919050565b600060ff82169050919050565b60006200065b8262000637565b9150620006688362000641565b9250620006977fffffffffffffffffffffffffffffffffffffffffffffffffffffffffffffffff84846200054b565b905092915050565b6000620006ac8262000637565b9150620006b98362000637565b9250828202620006c98162000637565b91508282048414831517620006e357620006e2620004b4565b5b5092915050565b620006f58162000637565b82525050565b6000602082019050620007126000830184620006ea565b92915050565b61398580620007286000396000f3fe6080604052600436106101445760003560e01c80637d1db4a5116100b6578063a9059cbb1161006f578063a9059cbb146103fb578063b9a410ff14610438578063b9d0f1af14610461578063bf474bed1461048a578063dd62ed3e146104b5578063ea414b28146104f25761014b565b80637d1db4a5146103215780638a25a1661461034c5780638da5cb5b146103635780638f9a55c01461038e57806395d89b41146103b95780639e78fb4f146103e45761014b565b8063313ce56711610108578063313ce5671461024b57806351bc3c8514610276578063672434821461028d57806370a08231146102b6578063715018a6146102f3578063751039fc1461030a5761014b565b806306fdde0314610150578063095ea7b31461017b5780630faee56f146101b857806318160ddd146101e357806323b872dd1461020e5761014b565b3661014b57005b600080fd5b34801561015c57600080fd5b5061016561051b565b6040516101729190612776565b60405180910390f35b34801561018757600080fd5b506101a2600480360381019061019d9190612836565b610558565b6040516101af9190612891565b60405180910390f35b3480156101c457600080fd5b506101cd610576565b6040516101da91906128bb565b60405180910390f35b3480156101ef57600080fd5b506101f861057c565b60405161020591906128bb565b60405180910390f35b34801561021a57600080fd5b50610235600480360381019061023091906128d6565b6105a0565b6040516102429190612891565b60405180910390f35b34801561025757600080fd5b50610260610679565b60405161026d9190612945565b60405180910390f35b34801561028257600080fd5b5061028b610682565b005b34801561029957600080fd5b506102b460048036038101906102af9190612a1b565b61078c565b005b3480156102c257600080fd5b506102dd60048036038101906102d89190612a9c565b6108e3565b6040516102ea91906128bb565b60405180910390f35b3480156102ff57600080fd5b5061030861092c565b005b34801561031657600080fd5b5061031f610a7f565b005b34801561032d57600080fd5b50610336610bca565b60405161034391906128bb565b60405180910390f35b34801561035857600080fd5b50610361610bd0565b005b34801561036f57600080fd5b50610378610d44565b6040516103859190612ad8565b60405180910390f35b34801561039a57600080fd5b506103a3610d6d565b6040516103b091906128bb565b60405180910390f35b3480156103c557600080fd5b506103ce610d73565b6040516103db9190612776565b60405180910390f35b3480156103f057600080fd5b506103f9610db0565b005b34801561040757600080fd5b50610422600480360381019061041d9190612836565b61130c565b60405161042f9190612891565b60405180910390f35b34801561044457600080fd5b5061045f600480360381019061045a9190612af3565b61132a565b005b34801561046d57600080fd5b5061048860048036038101906104839190612b33565b611473565b005b34801561049657600080fd5b5061049f611512565b6040516104ac91906128bb565b60405180910390f35b3480156104c157600080fd5b506104dc60048036038101906104d79190612b60565b611531565b6040516104e991906128bb565b60405180910390f35b3480156104fe57600080fd5b5061051960048036038101906105149190612bde565b6115b8565b005b60606040518060400160405280600881526020017f4175746f6e4e6574000000000000000000000000000000000000000000000000815250905090565b600061056c610565611691565b8484611699565b6001905092915050565b60085481565b60006009600a61058c9190612d6d565b6305f5e10061059b9190612db8565b905090565b60006105ad84848461182d565b61066e846105b9611691565b6106698560405180606001604052806028815260200161392860289139600260008b73ffffffffffffffffffffffffffffffffffffffff1673ffffffffffffffffffffffffffffffffffffffff168152602001908152602001600020600061061f611691565b73ffffffffffffffffffffffffffffffffffffffff1673ffffffffffffffffffffffffffffffffffffffff168152602001908152602001600020546121ce9092919063ffffffff16565b611699565b600190509392505050565b60006009905090565b61068a611691565b73ffffffffffffffffffffffffffffffffffffffff1660008054906101000a900473ffffffffffffffffffffffffffffffffffffffff1673ffffffffffffffffffffffffffffffffffffffff1614610717576040517f08c379a000000000000000000000000000000000000000000000000000000000815260040161070e90612e46565b60405180910390fd5b600c60169054906101000a900460ff161580156107405750600c60179054906101000a900460ff165b61077f576040517f08c379a000000000000000000000000000000000000000000000000000000000815260040161077690612eb2565b60405180910390fd5b61078a600854612232565b565b610794611691565b73ffffffffffffffffffffffffffffffffffffffff1660008054906101000a900473ffffffffffffffffffffffffffffffffffffffff1673ffffffffffffffffffffffffffffffffffffffff1614610821576040517f08c379a000000000000000000000000000000000000000000000000000000000815260040161081890612e46565b60405180910390fd5b818190508484905014610869576040517f08c379a000000000000000000000000000000000000000000000000000000000815260040161086090612f44565b60405180910390fd5b60005b848490508110156108dc576108c9610882611691565b86868481811061089557610894612f64565b5b90506020020160208101906108aa9190612a9c565b8585858181106108bd576108bc612f64565b5b9050602002013561182d565b80806108d490612f93565b91505061086c565b5050505050565b6000600160008373ffffffffffffffffffffffffffffffffffffffff1673ffffffffffffffffffffffffffffffffffffffff168152602001908152602001600020549050919050565b610934611691565b73ffffffffffffffffffffffffffffffffffffffff1660008054906101000a900473ffffffffffffffffffffffffffffffffffffffff1673ffffffffffffffffffffffffffffffffffffffff16146109c1576040517f08c379a00000000000000000000000000000000000000000000000000000000081526004016109b890612e46565b60405180910390fd5b600073ffffffffffffffffffffffffffffffffffffffff1660008054906101000a900473ffffffffffffffffffffffffffffffffffffffff1673ffffffffffffffffffffffffffffffffffffffff167f8be0079c531659141344cd1fd0a4f28419497f9722a3daafe3b4186f6b6457e060405160405180910390a360008060006101000a81548173ffffffffffffffffffffffffffffffffffffffff021916908373ffffffffffffffffffffffffffffffffffffffff160217905550565b610a87611691565b73ffffffffffffffffffffffffffffffffffffffff1660008054906101000a900473ffffffffffffffffffffffffffffffffffffffff1673ffffffffffffffffffffffffffffffffffffffff1614610b14576040517f08c379a0000000000000000000000000000000000000000000000000000000008152600401610b0b90612e46565b60405180910390fd5b6000600c60156101000a81548160ff0219169083151502179055506009600a610b3d9190612d6d565b6305f5e100610b4c9190612db8565b6009819055506009600a610b609190612d6d565b6305f5e100610b6f9190612db8565b600a819055507f69ada53addde5123341ce3a822c5f66292103b2771e41e1f3c00c2de8a63a7f96009600a610ba49190612d6d565b6305f5e100610bb39190612db8565b604051610bc091906128bb565b60405180910390a1565b60095481565b610bd8611691565b73ffffffffffffffffffffffffffffffffffffffff1660008054906101000a900473ffffffffffffffffffffffffffffffffffffffff1673ffffffffffffffffffffffffffffffffffffffff1614610c65576040517f08c379a0000000000000000000000000000000000000000000000000000000008152600401610c5c90612e46565b60405180910390fd5b600c60149054906101000a900460ff1615610cb5576040517f08c379a0000000000000000000000000000000000000000000000000000000008152600401610cac90613027565b60405180910390fd5b6001600c60176101000a81548160ff0219169083151502179055506001600c60146101000a81548160ff0219169083151502179055507f029ed388f3dd39b342f312d7b12cba9e3065871bf0fb668cc5457f217b15dd7c600c60149054906101000a900460ff16600c60179054906101000a900460ff16604051610d3a929190613047565b60405180910390a1565b60008060009054906101000a900473ffffffffffffffffffffffffffffffffffffffff16905090565b600a5481565b60606040518060400160405280600481526020017f414e544100000000000000000000000000000000000000000000000000000000815250905090565b610db8611691565b73ffffffffffffffffffffffffffffffffffffffff1660008054906101000a900473ffffffffffffffffffffffffffffffffffffffff1673ffffffffffffffffffffffffffffffffffffffff1614610e45576040517f08c379a0000000000000000000000000000000000000000000000000000000008152600401610e3c90612e46565b60405180910390fd5b600c60149054906101000a900460ff1615610e95576040517f08c379a0000000000000000000000000000000000000000000000000000000008152600401610e8c906130bc565b60405180910390fd5b6000610ef4610edd6064610ecf60326009600a610eb29190612d6d565b6305f5e100610ec19190612db8565b6124ab90919063ffffffff16565b61252590919063ffffffff16565b610ee6306108e3565b61256f90919063ffffffff16565b9050737a250d5630b4cf539739df2c5dacb4c659f2488d600b60006101000a81548173ffffffffffffffffffffffffffffffffffffffff021916908373ffffffffffffffffffffffffffffffffffffffff160217905550610f9430600b60009054906101000a900473ffffffffffffffffffffffffffffffffffffffff166009600a610f809190612d6d565b6305f5e100610f8f9190612db8565b611699565b600b60009054906101000a900473ffffffffffffffffffffffffffffffffffffffff1673ffffffffffffffffffffffffffffffffffffffff1663c45a01556040518163ffffffff1660e01b8152600401602060405180830381865afa158015611001573d6000803e3d6000fd5b505050506040513d601f19601f8201168201806040525081019061102591906130f1565b73ffffffffffffffffffffffffffffffffffffffff1663c9c6539630600b60009054906101000a900473ffffffffffffffffffffffffffffffffffffffff1673ffffffffffffffffffffffffffffffffffffffff1663ad5c46486040518163ffffffff1660e01b8152600401602060405180830381865afa1580156110ae573d6000803e3d6000fd5b505050506040513d601f19601f820116820180604052508101906110d291906130f1565b6040518363ffffffff1660e01b81526004016110ef92919061311e565b6020604051808303816000875af115801561110e573d6000803e3d6000fd5b505050506040513d601f19601f8201168201806040525081019061113291906130f1565b600c60006101000a81548173ffffffffffffffffffffffffffffffffffffffff021916908373ffffffffffffffffffffffffffffffffffffffff160217905550600b60009054906101000a900473ffffffffffffffffffffffffffffffffffffffff1673ffffffffffffffffffffffffffffffffffffffff1663f305d7194730846000806111be611691565b426040518863ffffffff1660e01b81526004016111e09695949392919061318c565b60606040518083038185885af11580156111fe573d6000803e3d6000fd5b50505050506040513d601f19601f820116820180604052508101906112239190613202565b505050600c60009054906101000a900473ffffffffffffffffffffffffffffffffffffffff1673ffffffffffffffffffffffffffffffffffffffff1663095ea7b3600b60009054906101000a900473ffffffffffffffffffffffffffffffffffffffff167fffffffffffffffffffffffffffffffffffffffffffffffffffffffffffffffff6040518363ffffffff1660e01b81526004016112c5929190613255565b6020604051808303816000875af11580156112e4573d6000803e3d6000fd5b505050506040513d601f19601f8201168201806040525081019061130891906132aa565b5050565b6000611320611319611691565b848461182d565b6001905092915050565b611332611691565b73ffffffffffffffffffffffffffffffffffffffff1660008054906101000a900473ffffffffffffffffffffffffffffffffffffffff1673ffffffffffffffffffffffffffffffffffffffff16146113bf576040517f08c379a00000000000000000000000000000000000000000000000000000000081526004016113b690612e46565b60405180910390fd5b603282111580156113d1575060328111155b80156113e95750600c60149054906101000a900460ff165b611428576040517f08c379a000000000000000000000000000000000000000000000000000000000815260040161141f90613323565b60405180910390fd5b81600581905550806006819055507f78009e5656a5c60b3c047015fb856b2efbc6f42beed76119406d7d4e3fc161f48282604051611467929190613343565b60405180910390a15050565b61147b611691565b73ffffffffffffffffffffffffffffffffffffffff1660008054906101000a900473ffffffffffffffffffffffffffffffffffffffff1673ffffffffffffffffffffffffffffffffffffffff1614611508576040517f08c379a00000000000000000000000000000000000000000000000000000000081526004016114ff90612e46565b60405180910390fd5b8060088190555050565b6009600a6115209190612d6d565b620186a061152e9190612db8565b81565b6000600260008473ffffffffffffffffffffffffffffffffffffffff1673ffffffffffffffffffffffffffffffffffffffff16815260200190815260200160002060008373ffffffffffffffffffffffffffffffffffffffff1673ffffffffffffffffffffffffffffffffffffffff16815260200190815260200160002054905092915050565b6115c0611691565b73ffffffffffffffffffffffffffffffffffffffff1660008054906101000a900473ffffffffffffffffffffffffffffffffffffffff1673ffffffffffffffffffffffffffffffffffffffff161461164d576040517f08c379a000000000000000000000000000000000000000000000000000000000815260040161164490612e46565b60405180910390fd5b80600460006101000a81548173ffffffffffffffffffffffffffffffffffffffff021916908373ffffffffffffffffffffffffffffffffffffffff16021790555050565b600033905090565b600073ffffffffffffffffffffffffffffffffffffffff168373ffffffffffffffffffffffffffffffffffffffff16141580156117035750600073ffffffffffffffffffffffffffffffffffffffff168273ffffffffffffffffffffffffffffffffffffffff1614155b611742576040517f08c379a0000000000000000000000000000000000000000000000000000000008152600401611739906133b8565b60405180910390fd5b80600260008573ffffffffffffffffffffffffffffffffffffffff1673ffffffffffffffffffffffffffffffffffffffff16815260200190815260200160002060008473ffffffffffffffffffffffffffffffffffffffff1673ffffffffffffffffffffffffffffffffffffffff168152602001908152602001600020819055508173ffffffffffffffffffffffffffffffffffffffff168373ffffffffffffffffffffffffffffffffffffffff167f8c5be1e5ebec7d5bd14f71427d1e84f3dd0314c0f7b2291e5b200ac8c7c3b9258360405161182091906128bb565b60405180910390a3505050565b600073ffffffffffffffffffffffffffffffffffffffff168373ffffffffffffffffffffffffffffffffffffffff16141580156118975750600073ffffffffffffffffffffffffffffffffffffffff168273ffffffffffffffffffffffffffffffffffffffff1614155b6118d6576040517f08c379a00000000000000000000000000000000000000000000000000000000081526004016118cd90613424565b60405180910390fd5b60008111611919576040517f08c379a0000000000000000000000000000000000000000000000000000000008152600401611910906134b6565b60405180910390fd5b6000611923610d44565b73ffffffffffffffffffffffffffffffffffffffff168473ffffffffffffffffffffffffffffffffffffffff16141580156119915750611961610d44565b73ffffffffffffffffffffffffffffffffffffffff168373ffffffffffffffffffffffffffffffffffffffff1614155b15611f1157600c60149054906101000a900460ff16611a8b57600360008573ffffffffffffffffffffffffffffffffffffffff1673ffffffffffffffffffffffffffffffffffffffff16815260200190815260200160002060009054906101000a900460ff1680611a4b5750600360008473ffffffffffffffffffffffffffffffffffffffff1673ffffffffffffffffffffffffffffffffffffffff16815260200190815260200160002060009054906101000a900460ff165b611a8a576040517f08c379a0000000000000000000000000000000000000000000000000000000008152600401611a8190613522565b60405180910390fd5b5b600c60009054906101000a900473ffffffffffffffffffffffffffffffffffffffff1673ffffffffffffffffffffffffffffffffffffffff168473ffffffffffffffffffffffffffffffffffffffff16148015611b365750600b60009054906101000a900473ffffffffffffffffffffffffffffffffffffffff1673ffffffffffffffffffffffffffffffffffffffff168373ffffffffffffffffffffffffffffffffffffffff1614155b8015611b8c5750600360008473ffffffffffffffffffffffffffffffffffffffff1673ffffffffffffffffffffffffffffffffffffffff16815260200190815260200160002060009054906101000a900460ff16155b15611c5d57600c60159054906101000a900460ff1615611c4457600954821115611beb576040517f08c379a0000000000000000000000000000000000000000000000000000000008152600401611be29061358e565b60405180910390fd5b600a5482611bf8856108e3565b611c0291906135ae565b1115611c43576040517f08c379a0000000000000000000000000000000000000000000000000000000008152600401611c3a9061362e565b60405180910390fd5b5b60076000815480929190611c5790612f93565b91905055505b600c60009054906101000a900473ffffffffffffffffffffffffffffffffffffffff1673ffffffffffffffffffffffffffffffffffffffff168373ffffffffffffffffffffffffffffffffffffffff16148015611ce657503073ffffffffffffffffffffffffffffffffffffffff168473ffffffffffffffffffffffffffffffffffffffff1614155b15611d2c57611d256064611d17603260075411611d04576032611d08565b6006545b856124ab90919063ffffffff16565b61252590919063ffffffff16565b9050611df8565b600c60009054906101000a900473ffffffffffffffffffffffffffffffffffffffff1673ffffffffffffffffffffffffffffffffffffffff168473ffffffffffffffffffffffffffffffffffffffff16148015611db557503073ffffffffffffffffffffffffffffffffffffffff168373ffffffffffffffffffffffffffffffffffffffff1614155b15611df757611df46064611de6603260075411611dd3576032611dd7565b6005545b856124ab90919063ffffffff16565b61252590919063ffffffff16565b90505b5b6000611e03306108e3565b9050600c60169054906101000a900460ff16158015611e6f5750600c60009054906101000a900473ffffffffffffffffffffffffffffffffffffffff1673ffffffffffffffffffffffffffffffffffffffff168473ffffffffffffffffffffffffffffffffffffffff16145b8015611e875750600c60179054906101000a900460ff165b8015611ead57506009600a611e9c9190612d6d565b620186a0611eaa9190612db8565b81115b8015611ebb57506019600754115b15611f0f5760006008548211611ed15781611ed5565b6008545b90506000818511611ee65784611ee8565b815b9050611ef381612232565b60004790506000811115611f0b57611f0a476125b9565b5b5050505b505b600081111561201557611f6c81600160003073ffffffffffffffffffffffffffffffffffffffff1673ffffffffffffffffffffffffffffffffffffffff1681526020019081526020016000205461262590919063ffffffff16565b600160003073ffffffffffffffffffffffffffffffffffffffff1673ffffffffffffffffffffffffffffffffffffffff168152602001908152602001600020819055503073ffffffffffffffffffffffffffffffffffffffff168473ffffffffffffffffffffffffffffffffffffffff167fddf252ad1be2c89b69c2b068fc378daa952ba7f163c4a11628f55a4df523b3ef8360405161200c91906128bb565b60405180910390a35b61206782600160008773ffffffffffffffffffffffffffffffffffffffff1673ffffffffffffffffffffffffffffffffffffffff1681526020019081526020016000205461256f90919063ffffffff16565b600160008673ffffffffffffffffffffffffffffffffffffffff1673ffffffffffffffffffffffffffffffffffffffff1681526020019081526020016000208190555061210e6120c0828461256f90919063ffffffff16565b600160008673ffffffffffffffffffffffffffffffffffffffff1673ffffffffffffffffffffffffffffffffffffffff1681526020019081526020016000205461262590919063ffffffff16565b600160008573ffffffffffffffffffffffffffffffffffffffff1673ffffffffffffffffffffffffffffffffffffffff168152602001908152602001600020819055508273ffffffffffffffffffffffffffffffffffffffff168473ffffffffffffffffffffffffffffffffffffffff167fddf252ad1be2c89b69c2b068fc378daa952ba7f163c4a11628f55a4df523b3ef6121b3848661256f90919063ffffffff16565b6040516121c091906128bb565b60405180910390a350505050565b6000838311158290612216576040517f08c379a000000000000000000000000000000000000000000000000000000000815260040161220d9190612776565b60405180910390fd5b5060008385612225919061364e565b9050809150509392505050565b6001600c60166101000a81548160ff0219169083151502179055506000600267ffffffffffffffff81111561226a57612269613682565b5b6040519080825280602002602001820160405280156122985781602001602082028036833780820191505090505b50905030816000815181106122b0576122af612f64565b5b602002602001019073ffffffffffffffffffffffffffffffffffffffff16908173ffffffffffffffffffffffffffffffffffffffff1681525050600b60009054906101000a900473ffffffffffffffffffffffffffffffffffffffff1673ffffffffffffffffffffffffffffffffffffffff1663ad5c46486040518163ffffffff1660e01b8152600401602060405180830381865afa158015612357573d6000803e3d6000fd5b505050506040513d601f19601f8201168201806040525081019061237b91906130f1565b8160018151811061238f5761238e612f64565b5b602002602001019073ffffffffffffffffffffffffffffffffffffffff16908173ffffffffffffffffffffffffffffffffffffffff16815250506123f630600b60009054906101000a900473ffffffffffffffffffffffffffffffffffffffff1684611699565b600b60009054906101000a900473ffffffffffffffffffffffffffffffffffffffff1673ffffffffffffffffffffffffffffffffffffffff1663791ac9478360008430426040518663ffffffff1660e01b815260040161245a95949392919061376f565b600060405180830381600087803b15801561247457600080fd5b505af1158015612488573d6000803e3d6000fd5b50505050506000600c60166101000a81548160ff02191690831515021790555050565b60008083036124bd576000905061251f565b600082846124cb9190612db8565b90508284826124da91906137f8565b1461251a576040517f08c379a00000000000000000000000000000000000000000000000000000000081526004016125119061389b565b60405180910390fd5b809150505b92915050565b600061256783836040518060400160405280601a81526020017f536166654d6174683a206469766973696f6e206279207a65726f000000000000815250612683565b905092915050565b60006125b183836040518060400160405280601e81526020017f536166654d6174683a207375627472616374696f6e206f766572666c6f7700008152506121ce565b905092915050565b600460009054906101000a900473ffffffffffffffffffffffffffffffffffffffff1673ffffffffffffffffffffffffffffffffffffffff166108fc829081150290604051600060405180830381858888f19350505050158015612621573d6000803e3d6000fd5b5050565b600080828461263491906135ae565b905083811015612679576040517f08c379a000000000000000000000000000000000000000000000000000000000815260040161267090613907565b60405180910390fd5b8091505092915050565b600080831182906126ca576040517f08c379a00000000000000000000000000000000000000000000000000000000081526004016126c19190612776565b60405180910390fd5b50600083856126d991906137f8565b9050809150509392505050565b600081519050919050565b600082825260208201905092915050565b60005b83811015612720578082015181840152602081019050612705565b60008484015250505050565b6000601f19601f8301169050919050565b6000612748826126e6565b61275281856126f1565b9350612762818560208601612702565b61276b8161272c565b840191505092915050565b60006020820190508181036000830152612790818461273d565b905092915050565b600080fd5b600080fd5b600073ffffffffffffffffffffffffffffffffffffffff82169050919050565b60006127cd826127a2565b9050919050565b6127dd816127c2565b81146127e857600080fd5b50565b6000813590506127fa816127d4565b92915050565b6000819050919050565b61281381612800565b811461281e57600080fd5b50565b6000813590506128308161280a565b92915050565b6000806040838503121561284d5761284c612798565b5b600061285b858286016127eb565b925050602061286c85828601612821565b9150509250929050565b60008115159050919050565b61288b81612876565b82525050565b60006020820190506128a66000830184612882565b92915050565b6128b581612800565b82525050565b60006020820190506128d060008301846128ac565b92915050565b6000806000606084860312156128ef576128ee612798565b5b60006128fd868287016127eb565b935050602061290e868287016127eb565b925050604061291f86828701612821565b9150509250925092565b600060ff82169050919050565b61293f81612929565b82525050565b600060208201905061295a6000830184612936565b92915050565b600080fd5b600080fd5b600080fd5b60008083601f84011261298557612984612960565b5b8235905067ffffffffffffffff8111156129a2576129a1612965565b5b6020830191508360208202830111156129be576129bd61296a565b5b9250929050565b60008083601f8401126129db576129da612960565b5b8235905067ffffffffffffffff8111156129f8576129f7612965565b5b602083019150836020820283011115612a1457612a1361296a565b5b9250929050565b60008060008060408587031215612a3557612a34612798565b5b600085013567ffffffffffffffff811115612a5357612a5261279d565b5b612a5f8782880161296f565b9450945050602085013567ffffffffffffffff811115612a8257612a8161279d565b5b612a8e878288016129c5565b925092505092959194509250565b600060208284031215612ab257612ab1612798565b5b6000612ac0848285016127eb565b91505092915050565b612ad2816127c2565b82525050565b6000602082019050612aed6000830184612ac9565b92915050565b60008060408385031215612b0a57612b09612798565b5b6000612b1885828601612821565b9250506020612b2985828601612821565b9150509250929050565b600060208284031215612b4957612b48612798565b5b6000612b5784828501612821565b91505092915050565b60008060408385031215612b7757612b76612798565b5b6000612b85858286016127eb565b9250506020612b96858286016127eb565b9150509250929050565b6000612bab826127a2565b9050919050565b612bbb81612ba0565b8114612bc657600080fd5b50565b600081359050612bd881612bb2565b92915050565b600060208284031215612bf457612bf3612798565b5b6000612c0284828501612bc9565b91505092915050565b7f4e487b7100000000000000000000000000000000000000000000000000000000600052601160045260246000fd5b60008160011c9050919050565b6000808291508390505b6001851115612c9157808604811115612c6d57612c6c612c0b565b5b6001851615612c7c5780820291505b8081029050612c8a85612c3a565b9450612c51565b94509492505050565b600082612caa5760019050612d66565b81612cb85760009050612d66565b8160018114612cce5760028114612cd857612d07565b6001915050612d66565b60ff841115612cea57612ce9612c0b565b5b8360020a915084821115612d0157612d00612c0b565b5b50612d66565b5060208310610133831016604e8410600b8410161715612d3c5782820a905083811115612d3757612d36612c0b565b5b612d66565b612d498484846001612c47565b92509050818404811115612d6057612d5f612c0b565b5b81810290505b9392505050565b6000612d7882612800565b9150612d8383612929565b9250612db07fffffffffffffffffffffffffffffffffffffffffffffffffffffffffffffffff8484612c9a565b905092915050565b6000612dc382612800565b9150612dce83612800565b9250828202612ddc81612800565b91508282048414831517612df357612df2612c0b565b5b5092915050565b7f4f776e61626c653a2063616c6c6572206973206e6f7420746865206f776e6572600082015250565b6000612e306020836126f1565b9150612e3b82612dfa565b602082019050919050565b60006020820190508181036000830152612e5f81612e23565b9050919050565b7f416c726561647920696e20737761700000000000000000000000000000000000600082015250565b6000612e9c600f836126f1565b9150612ea782612e66565b602082019050919050565b60006020820190508181036000830152612ecb81612e8f565b9050919050565b7f4d69736d617463686564207265636970696e69656e747320616e642076616c7560008201527f65732e0000000000000000000000000000000000000000000000000000000000602082015250565b6000612f2e6023836126f1565b9150612f3982612ed2565b604082019050919050565b60006020820190508181036000830152612f5d81612f21565b9050919050565b7f4e487b7100000000000000000000000000000000000000000000000000000000600052603260045260246000fd5b6000612f9e82612800565b91507fffffffffffffffffffffffffffffffffffffffffffffffffffffffffffffffff8203612fd057612fcf612c0b565b5b600182019050919050565b7f74726164696e6720616c7265616479206f70656e000000000000000000000000600082015250565b60006130116014836126f1565b915061301c82612fdb565b602082019050919050565b6000602082019050818103600083015261304081613004565b9050919050565b600060408201905061305c6000830185612882565b6130696020830184612882565b9392505050565b7f696e697420616c72656164792063616c6c656400000000000000000000000000600082015250565b60006130a66013836126f1565b91506130b182613070565b602082019050919050565b600060208201905081810360008301526130d581613099565b9050919050565b6000815190506130eb816127d4565b92915050565b60006020828403121561310757613106612798565b5b6000613115848285016130dc565b91505092915050565b60006040820190506131336000830185612ac9565b6131406020830184612ac9565b9392505050565b6000819050919050565b6000819050919050565b600061317661317161316c84613147565b613151565b612800565b9050919050565b6131868161315b565b82525050565b600060c0820190506131a16000830189612ac9565b6131ae60208301886128ac565b6131bb604083018761317d565b6131c8606083018661317d565b6131d56080830185612ac9565b6131e260a08301846128ac565b979650505050505050565b6000815190506131fc8161280a565b92915050565b60008060006060848603121561321b5761321a612798565b5b6000613229868287016131ed565b935050602061323a868287016131ed565b925050604061324b868287016131ed565b9150509250925092565b600060408201905061326a6000830185612ac9565b61327760208301846128ac565b9392505050565b61328781612876565b811461329257600080fd5b50565b6000815190506132a48161327e565b92915050565b6000602082840312156132c0576132bf612798565b5b60006132ce84828501613295565b91505092915050565b7f5461782065786365656473206d6178696d756d20616d6f756e74000000000000600082015250565b600061330d601a836126f1565b9150613318826132d7565b602082019050919050565b6000602082019050818103600083015261333c81613300565b9050919050565b600060408201905061335860008301856128ac565b61336560208301846128ac565b9392505050565b7f45524332303a20617070726f766520746865207a65726f206164647265737300600082015250565b60006133a2601f836126f1565b91506133ad8261336c565b602082019050919050565b600060208201905081810360008301526133d181613395565b9050919050565b7f45524332303a207472616e7366657220746865207a65726f2061646472657373600082015250565b600061340e6020836126f1565b9150613419826133d8565b602082019050919050565b6000602082019050818103600083015261343d81613401565b9050919050565b7f5472616e7366657220616d6f756e74206d75737420626520677265617465722060008201527f7468616e207a65726f0000000000000000000000000000000000000000000000602082015250565b60006134a06029836126f1565b91506134ab82613444565b604082019050919050565b600060208201905081810360008301526134cf81613493565b9050919050565b7f74726164696e67206973206e6f7420796574206f70656e000000000000000000600082015250565b600061350c6017836126f1565b9150613517826134d6565b602082019050919050565b6000602082019050818103600083015261353b816134ff565b9050919050565b7f4578636565647320746865205f6d61785478416d6f756e742e00000000000000600082015250565b60006135786019836126f1565b915061358382613542565b602082019050919050565b600060208201905081810360008301526135a78161356b565b9050919050565b60006135b982612800565b91506135c483612800565b92508282019050808211156135dc576135db612c0b565b5b92915050565b7f4578636565647320746865206d617857616c6c657453697a652e000000000000600082015250565b6000613618601a836126f1565b9150613623826135e2565b602082019050919050565b600060208201905081810360008301526136478161360b565b9050919050565b600061365982612800565b915061366483612800565b925082820390508181111561367c5761367b612c0b565b5b92915050565b7f4e487b7100000000000000000000000000000000000000000000000000000000600052604160045260246000fd5b600081519050919050565b600082825260208201905092915050565b6000819050602082019050919050565b6136e6816127c2565b82525050565b60006136f883836136dd565b60208301905092915050565b6000602082019050919050565b600061371c826136b1565b61372681856136bc565b9350613731836136cd565b8060005b8381101561376257815161374988826136ec565b975061375483613704565b925050600181019050613735565b5085935050505092915050565b600060a08201905061378460008301886128ac565b613791602083018761317d565b81810360408301526137a38186613711565b90506137b26060830185612ac9565b6137bf60808301846128ac565b9695505050505050565b7f4e487b7100000000000000000000000000000000000000000000000000000000600052601260045260246000fd5b600061380382612800565b915061380e83612800565b92508261381e5761381d6137c9565b5b828204905092915050565b7f536166654d6174683a206d756c7469706c69636174696f6e206f766572666c6f60008201527f7700000000000000000000000000000000000000000000000000000000000000602082015250565b60006138856021836126f1565b915061389082613829565b604082019050919050565b600060208201905081810360008301526138b481613878565b9050919050565b7f536166654d6174683a206164646974696f6e206f766572666c6f770000000000600082015250565b60006138f1601b836126f1565b91506138fc826138bb565b602082019050919050565b60006020820190508181036000830152613920816138e4565b905091905056fe45524332303a207472616e7366657220616d6f756e74206578636565647320616c6c6f77616e6365a2646970667358221220c0d0d48ee8a9fae5d7ebcea79f6b502c698005f31b7b7ecc695ec63fd805625764736f6c63430008150033",
  "linkReferences": {},
  "deployedLinkReferences": {}
}